:02000004080AE8
:1000000000000A08F82E0A08000005000600050195
:080010000402EA0300000000F5
:10001800C0280A0809480A4908B5884205D0094A8B
:10002800824202D0121A02F047FB0748074A002111
:10003800121A02F04CFB064808BD00BF000300205E
:10004800442E0A088C03002090030020CC0D0020C9
:10005800CC0D002070B502F0E7F8074B074C1E46A0
:10006800E41AA4080025A54204D056F8253098477C
:100078000135F8E770BD00BFD02D0A08342E0A08F4
:1000880000F0AEB808B500F05DF9BDE8084002F030
:100098008DB801F011B901F017B90078B0FA80F005
:1000A8004009704701230370704710B504460430B7
:1000B80001F00BFB204610BD10B504463C3001F0A2
:1000C80004FB04F1280001F000FB204601F0FDFAD2
:1000D800204610BD38B50B4B8469054603607CB1DA
:1000E8006368013B63605BB9236820469B68984757
:1000F800A368013BA3601BB923682046DB689847C7
:10010800284638BD702B0A0810B50446FFF7E2FFF1
:10011800204610BD10B50446FFF7DCFF2046FFF768
:10012800BAFF204610BD000070B5244BD6B01A683F
:1001380002908DE805000BA80B68214901F0D4F85E
:1001480001F04CFF0BA901F0AEF91E4EB923009344
:1001580000231A460A2105A806F1140406AD01F089
:1001680055F90FCD0FC42B681749237041F2883316
:1001780006F12800B36301F041FB0BA906F13C002E
:1001880001F03CFB01F02AFFF16B01F08CF90F4CF8
:100198000F4B2246314600930E480F4B00F076F97C
:1001A80001F01CFF0D4901F06BF901F017FF0A225D
:1001B800216801F0D0F956B070BD00BFA40300203B
:1001C800D4280A08E407002030290A08D0070020AC
:1001D8003F290A08B40300200003002044290A0824
:1001E80010B50A4C01F0FAFE4FF4165101F0DCFE8E
:1001F800204600F07FFA204600F0BAFB01F0EEFE40
:10020800BDE81040024901F04EB900BF9403002038
:1002180063290A0884B02DE9F04393B01BAC84E845
:100228000E0012AA0223064602F8453D01A92046FF
:1002380000F0C1FC00F0FD00012805D001F0CEFE61
:100248003B4901F030F903E0204600F02DFE20B9CB
:100258003849304601F080FA64E0374902A801F0D5
:100268007BFA01F0BBFE354901F00AF9DFF8D090BE
:10027800DFF8C48000279DF86C30FDB2AB4242D94C
:1002880002A90AA801F0A7FA1AAB1D44697906A8C1
:100298000F2994BF4946414601F05EFA06A90AA80B
:1002A80001F0EAFA01460EA801F095FA0EA902A893
:1002B80001F09CFA0EA801F008FA06A801F005FA68
:1002C8000AA801F002FA02A90AA801F084FA102289
:1002D800697906A801F0A3FA06A90AA801F0CCFAE0
:1002E80001460EA801F077FA0EA902A801F07EFADD
:1002F8000EA801F0EAF906A801F0E7F90AA801F04A
:10030800E4F90137B7E701F069FE029901F0CBF88B
:10031800204600F0A4FD02A9304601F0C6F902A863
:1003280001F0D3F9304613B0BDE8F04304B070478C
:1003380086290A08A4290A08122A0A08A9290A08E3
:1003480084290A0800B532208BB000F0D5FF0D488B
:100358004268836801688089ADF8000002A8FFF749
:1003680059FF02A906A801F036FA06A90120FFF7ED
:10037800DBFE06A801F0A9F902A801F0A6F90BB066
:100388005DF804FB9403002070B51F4C00F0E6FDF7
:10039800022201211D4800F095F91D4D204600F06C
:1003A80049F81C4E20461C4C2A461C4902F024F8E9
:1003B8003146204601F0D0F904F1100001F00AF8A6
:1003C800314604F1280001F0C7F9314604F13C0038
:1003D80001F0C2F92046124C2A46124902F00CF8E4
:1003E8003146201D01F0B8F920460F4C2A460F4926
:1003F80002F002F8204600F047FF2A462046BDE8F2
:1004080070400B4901F0F8BFB403002094030020AA
:1004180090030020122A0A08E407002011010A08A4
:10042800D0070020C1000A08A4030020B3000A086E
:10043800D3160A0810B5044601F022FC204610BD68
:1004480038B50446154601F01BF80549204601F069
:1004580017F829462046BDE8384001F024B800BF07
:10046800762A0A0838B50446154601F009F8054900
:10047800204601F005F829462046BDE838400A2202
:1004880001F069B8762A0A0800F068BD2DE9F04F36
:100498000D461E464FF0FF338FB00446136000210F
:1004A8002846174601F0F4F9D5F8388060B929686C
:1004B800B8F1000F02D01FFA88F200E050220023A2
:1004C800204601F087FA14E0744B0DF1240E05F173
:1004D800140C0893BCE80F00AEE80F00DCF80030FD
:1004E8001FFA88F28EF8003008A90023204601F090
:1004F800D1FB003018BF012018B9204601F06EFB6F
:10050800C8E01899204600F0BBFF6549204600F076
:10051800B7FFA96A204600F0B3FF6249204600F001
:10052800AFFF61492046614AFFF78AFF002128464C
:1005380001F0AEF920B92A685D492046FFF780FF2F
:1005480005F13C080021404601F0A2F908B96A6C9F
:1005580005E05849189802F0EBF8024618B95649D0
:100568002046FFF77FFF5EB1316849B172682046C7
:1005780012B1FFF765FF01E000F095FF0836F3E7D9
:10058800204600F084FF204601F017FA002140467B
:1005980001F07EF918B9E96B204600F084FF04F1F8
:1005A8001C084FF480620021404602F090F800F0E9
:1005B800CDFC00268146354600F0C8FC41F2883A59
:1005C800204601F0CDFAD8B1204601F070FA8346F2
:1005D80000F0BCFC40F2FE339D42814603D863190B
:1005E80083F81CB00AE040F2FF339D4206D1002395
:1005F80084F81B34204601F0F1FA01260135DFE7C3
:100608006319187700F0A2FCC9EB000B26B9D34593
:1006180002D8C82000F070FE204601F0E3FB18B1B4
:10062800D34501D8002ECBD0204601F0D7FA414659
:10063800684601F091F80C230922694604A801F0E4
:100648004BF91E4908A801F087F808A9684601F087
:1006580040F9044608A801F038F8631C14D03D1D81
:100668001749284601F0CAF8221D694608A801F072
:100678005BF908A9284601F0FBF808A801F025F85D
:10068800049802F007F8386004A801F01EF86846DC
:1006980001F01BF80FB0BDE8F08F00BF442A0A082C
:1006A800722A0A08DD290A08EF290A08E9290A082E
:1006B800FA290A083F290A08FF290A080E2A0A08FF
:1006C800122A0A0838B5044615460846217301213E
:1006D80001F0FAFD207B012101F007FE2846657331
:1006E800012101F0F1FD607B002101F0FEFD2046B3
:1006F80038BD000010B5094C204600F067FF2046C1
:10070800102100F0B5FF2046012100F064FF2046CB
:10071800BDE81040002100F061BF00BF0C0D0020B3
:10072800F8B50F4616460446094D0021007B01F036
:10073800DCFD07F07E01284600F0AEFF3146284672
:1007480000F0AAFF207B0121BDE8F84001F0CDBDF3
:100758000C0D0020F8B50D46144600210646007B16
:100768001F4601F0C2FD05F07E010A4800F094FF23
:10077800013C7D1E3C44A54205D015F8011F0548E3
:1007880000F08AFFF7E7307B0121BDE8F84001F06F
:10079800ACBD00BF0C0D002038B50C460546002145
:1007A800007B01F0A2FD04F07E01084C41F08001BD
:1007B800204600F071FF0021204600F06DFF04463E
:1007C8000121287B01F091FD204638BD0C0D002049
:1007D8002DE9F84F80461F469DF828901546002AB7
:1007E80043D001F07E0141F08006007B002101F03A
:1007F8007CFD31461E4800F04FFF013DEDB24FF041
:10080800000B4FF0010A5FFA8BF4A54221D9BCB95D
:10081800B9F1000F14D04B46072B06D80AFA03F09B
:1008280004430133E4B2DBB2F6E73146104800F086
:1008380033FF3B78204023EA04031843387005E06F
:1008480031460B4800F028FF07F80B000BF1010BAD
:10085800D9E70021064800F01FFF785598F80C00EA
:100868000121BDE8F84F01F040BDBDE8F88F00BF99
:100878000C0D002070B505460E461446FFF78CFF98
:1008880040EA040231462846BDE87040D2B2FFF77C
:1008980047BF70B505460E461446FFF77DFF20EAB0
:1008A800040231462846BDE87040D2B2FFF738BF8F
:1008B800F8B5044615460F46002202211E46FFF7EA
:1008C8002FFF04220A212046FFF72AFF8022142145
:1008D8002046FFF7CFFF2A463B4612212046FFF766
:1008E80039FF032202212046FFF71AFF41F288351B
:1008F8000A212046FFF750FF430705D4013DADB25A
:10090800002DF5D10420F8BD002220460221FFF772
:1009180007FF44212046FFF73FFF42213070204661
:10092800FFF73AFF70700120F8BD10B50F220221C1
:100938000446FFF7F5FE322000F0DEFC02212046D7
:10094800FFF72AFFC306F9D410BD10B528210446C5
:10095800FFF722FF00F00303032B08D040F0030247
:10096800D2B22046BDE810402821FFF7D9BE10BDFD
:1009780010B50446407B01F0D1FC38B9607B0121F9
:1009880001F0B3FC322000F0B7FC02E02046FFF78C
:10099800CCFF204680225421FFF7C2FE2046A92220
:1009A8005621FFF7BDFE204603225821FFF7B8FE67
:1009B8002046E8225A21FFF7B3FE204640222A218A
:1009C800FFF7AEFE20463D222221FFF7A9FE204672
:1009D800BDE81040FFF7B9BF2DE9F04F87B0DDF84B
:1009E8004C8004468B460292119F129D9DF850A0A0
:1009F800B8F1000F02D098F8006000E046460022E7
:100A0800022120460393FFF78BFE7F220821204610
:100A1800FFF786FE06EB0A16802214212046FFF710
:100A280029FFF6B2039B9DF8402012212046FFF7CC
:100A380091FE32461A212046FFF772FE5A460221DD
:100A48002046FFF76DFEBBF10C0F04D180221A215E
:100A58002046FFF70FFF4FF4FA6608212046FFF7FC
:100A68009BFE029B184204D1C20752D4013EF4D126
:100A78004FE00C212046FFF78FFE10F0130F0646BB
:100A880049D1DFB1D5B114212046FFF785FE2B7877
:100A98000246834241D328703B4612212046CDF8B6
:100AA80000A0FFF795FE18212046FFF775FE00F01D
:100AB8000709B8F1000F01D088F8009033072ED449
:100AC8007FB375B39DF854305BB32A78012A04D1FB
:100AD800B9F1040F27D1092026E024D9B9F1000F74
:100AE80021D1023A05ABD2B239462046FFF7E0FEE3
:100AF800012819D12B781F4417F8022C9DF81430BF
:100B08009A4210D117F8012C9DF815309A420AD153
:100B18000AE0042008E0022006E0052004E00320A3
:100B280002E0012000E0082007B0BDE8F08F10B512
:100B380086B09DF82C4005949DF828400494099CA3
:100B48000394089C8DE81C000B4630220C21FFF70B
:100B580043FF06B010BD70B588B006461C468DF838
:100B68001710154612B31B78012B1FD980221C21A0
:100B7800FFF78FFE07238DF81F300023039302939E
:100B88000DF11F03019300942B4601220DF117016B
:100B98003046FFF7CCFF01280BD12078022807D177
:100BA8009DF81F30002B08BF012002E0052000E05F
:100BB800022008B070BD13460A465221FFF7CBBF8A
:100BC8002DE9F04F502A8BB083468A46174600F22B
:100BD800F68080221C21FFF75CFE0125022D10D033
:100BE800032D1BD0012D40F0EC8093238DF81C3091
:100BF800D7B19AF800300026042B94BF00230123B4
:100C080016E06FF06A038DF81C307FB19AF8003057
:100C18000326072B94BF0023012309E097238DF8AF
:100C28001C300626002303E03E4600E003263B4630
:100C3800A7EBC60464B224EAE4742BB188228DF8C9
:100C48001E204FF0030801E04FF00208E1B211F056
:100C5800070218BF012202EBE40212F0FF0206D1DC
:100C6800002B00F08C8001F1080464B287E0002BAF
:100C780014BF03200420824228BF0246002008EB4C
:100C8800000E0DF1280C5FFA8EFEE64406EB000C10
:100C9800D4449CF801C001300EF80CCC5FFA80FEF9
:100CA8009645ECD3DCE7012840F08D801F2C00F33B
:100CB8008C8020244FF070039DF81E208DF81D3085
:100CC8009DF81F3007A953409DF8202058465A40E8
:100CD8009DF8213053408DF8223007220DF123036F
:100CE800FFF7E6FD012840F0B7804FF000038DF8CC
:100CF8001A3003238DF81B3009230DF122090493C0
:100D08000DF1280818F80E3D1A2103EB0312D2B290
:100D180058460593FFF704FD00230393059BCDF880
:100D2800048002930DF11B030093049A4B4607A914
:100D38005846FFF7FCFE03288046B4D11C215846CC
:100D4800FFF72AFD81063ED410F01F0008BF2020BF
:100D5800A04236DD44B2013800F0070310F0070066
:100D680018BF012000EBE4000AAA01301044012258
:100D780002FA03F310F80C2C134300F80C3C1F2C58
:100D880098DCE3100233DBB204F007085FFA88F25C
:100D9800B8F1000F0CBF984603F101088DF81A202E
:100DA80002EB03128DF81D205FFA88F2049207AA5D
:100DB80002EB0309C3F109038DF81B30A0E70720F4
:100DC8004AE0062048E0404646E09DF81E30882B61
:100DD8003FD0022104240023CA18D2B20DF1280EF4
:100DE8007244F01812F80C2C504401334270DAB2F5
:100DF8009442F1D89DF81B30032B26D19DF81A3068
:100E08001BBB0DF11E03012249465846FFF750FD52
:100E1800012821D19DF81E2099F801309A4216D157
:100E28009DF81F2099F802309A4210D199F80030A5
:100E38005A0702D50135EDB2D0E605EB4505013577
:100E48008AF80B308AF8005006E0022004E00820F7
:100E580002E003210C46BEE70BB0BDE8F08F70B589
:100E6800502386B08DF8143000250DF116030222A8
:100E780005A906468DF81550FFF71AFD0128044606
:100E88000FD103950295019500952B46042205A9DB
:100E98003046FFF74CFE042803D0012808BF022083
:100EA80000E0204606B070BD08B500220146FFF7F5
:100EB80087FE431E5842584108BD00F04FB800F065
:100EC8004DB8000008B500F049F8024B00221A603E
:100ED8005A6008BD3008002000F040B808B500F09E
:100EE8003DF8024B00221A605A6008BD38080020FD
:100EF80000F034B808B500F031F8024B00221A703F
:100F080008BD00BF4008002000F028B800F026B84F
:100F180000F024B800F022B800F020B808B5024B61
:100F28001B681B6B019308BDD001060808B5024B6E
:100F38001B68DB6E019308BDB801060808B5024BB3
:100F48001B685B68019308BD9C01060808B5024B45
:100F58001B685B69019308BD9C01060808B5024B34
:100F68001B681B68019308BDB001060808B5024B51
:100F78001B689B68019308BDB001060808B5024BC1
:100F88001B68DB68019308BDB001060808B5024B71
:100F98001B681B69019308BDB001060808B5024B20
:100FA8001B685B69019308BDB001060808B5024BD0
:100FB8001B681B6E019308BDAC01060808B5024BFF
:100FC8001B685B6E019308BDAC01060808B5024BAF
:100FD8001B689B6E019308BDAC01060808B5024B5F
:100FE8001B68DB6E019308BDAC01060808B5024B0F
:100FF8001B681B6F019308BDAC01060808B5024BBE
:101008001B685B6F019308BDAC01060808B5034B6C
:101018001B68D3F88030019308BD0000AC010608B6
:1010280008B5024B1B681B68019308BDBC01060884
:1010380008B5024B1B685B68019308BDBC01060834
:1010480008B5024B1B689B68019308BDBC010608E4
:1010580008B5024B1B68DB68019308BDBC01060894
:1010680008B5024B1B681B69019308BDBC01060843
:1010780008B5024B1B681B6A019308BDBC01060832
:1010880008B5024B1B681B6B019308BDBC01060821
:1010980008B5024B1B685B6C019308BDBC010608D0
:1010A80008B5024B1B681B68019308BDB40106080C
:1010B80008B5024B1B689B68019308BDB40106087C
:1010C80008B5024B1B68DB68019308BDB40106082C
:1010D80008B5024B1B681B69019308BDB4010608DB
:1010E80008B5024B1B685B69019308BDB40106088B
:1010F80008B5024B1B68DB69019308BDB4010608FB
:1011080008B5024B1B681B6A019308BDB4010608A9
:1011180008B5024B1B685B6A019308BDB401060859
:1011280008B5024B1B689B69019308BDC4010608FA
:1011380008B5024B1B685B6A019308BDC401060829
:1011480008B5024B1B689B6A019308BDC4010608D9
:1011580008B5024B1B68DB6A019308BDC401060889
:1011680008B5024B1B681B6B019308BDC401060838
:1011780008B5024B1B685B6B019308BDC4010608E8
:1011880008B5024B1B689B6B019308BDC401060898
:1011980008B5024B1B681B6C019308BDC401060807
:1011A80008B5024B1B681B68019308BDD8010608E7
:1011B80008B5024B1B685B68019308BDD801060897
:1011C80008B5024B1B681B69019308BDD8010608C6
:1011D80008B5024B1B685B69019308BDD801060876
:1011E80008B5024B1B689B69019308BDD801060826
:1011F80008B5024B1B68DB69019308BDD8010608D6
:1012080008B5024B1B681B6A019308BDD801060884
:1012180008B5024B1B685B6C019308BDC00106084A
:1012280008B5024B1B689B6C019308BDC0010608FA
:1012380008B5024B1B681B6D019308BDA801020885
:1012480008B5024B1B685B68019308BDA40106083A
:1012580008B5024B1B685B69019308BDA401060829
:1012680008B5034B1B68D3F89030019308BD000004
:10127800A401060808B5034B1B68D3F89C300193FA
:1012880008BD0000A401060808B5024B1B68DB690D
:10129800019308BDCC01060808B5024B1B68DB6B3F
:1012A800019308BDCC01060808B5024B1B681B69F1
:1012B800019308BDC801060808B5024B1B681B68E6
:1012C800019308BDA001060808B5024B1B685B68BE
:1012D800019308BDA001060808B5024B1B689B686E
:1012E800019308BDA001060808B5024B1B68DB681E
:1012F800019308BDA00106080021FFF7A9BF10B59A
:101308008368044613B1032201469847204610BD5E
:101318007047F8B5064615460C468F18BC4206D0ED
:10132800336814F8011B9B6830469847F6E728464F
:10133800F8BD0022007CFFF739BE0021007CFFF7D2
:101348003DBE0021007CFFF741BE0021007CFFF775
:1013580045BE0021007CFFF749BE10B50446FEF7E4
:101368009AFE204610BD000010B5044608464FF40A
:101378007A73A360044B0021207461602360FFF737
:1013880045FE204610BD00BF1C2A0A080021007C2B
:10139800FFF734BE704710B50446FEF77CFE2046C2
:1013A80010BDF8B50F4600F10806051D002416F813
:1013B800011D0A22384600F0AAF8AE42044407D0BC
:1013C800002CF4D02E21384600F05EF80444EEE7F5
:1013D8002046F8BD10B50446044B112240F8043BE2
:1013E800002101F074F9204610BD00BF442A0A0804
:1013F80010B59DF8084044EA032343EA024242EA52
:10140800016104234160037510BD000037B5044D28
:1014180005609DF818500095FFF7EAFF03B030BD4E
:10142800442A0A08014A024B1A607047082B0A0826
:1014380050080020F8B506460D468F180024BD4216
:101448000CD0336815F8011B9B6830469847002874
:1014580001DB0444F3E7002C08BF04462046F8BD2E
:1014680070B505460C46084649B101F073F92B687A
:10147800024621462846BDE87040DB68184770BD23
:1014880008B5FFF7EDFF08BD03689B68184738B536
:101498000D210546FFF7F8FF0A2104462846FFF705
:1014A800F3FF204438BD38B50546FFF7D9FF044699
:1014B8002846FFF7ECFF204438BD012A98BF0A22CE
:1014C80030B50B468BB000218DF824100DF12304A4
:1014D800B3FBF2F505FB1233DBB2092B94BF3033B3
:1014E8003733DBB2214604F801392B46002DEFD102
:1014F800FFF7B6FF0BB030BD10B422B90368C9B20C
:101508009B6810BC1847D2B210BCFFF7D6BFFFF7D4
:10151800F3BF2DE9F04107460E4615462AB9BDE846
:10152800F0410368C9B29B6818470A2A02D100290A
:1015380001DA04E0D2B2BDE8F041FFF7BEBF2D21C9
:10154800FFF7A2FF2A46044671423846FFF7B5FF67
:101558002044BDE8F08138B50546FFF7DAFF0446B8
:101568002846FFF794FF204438BD10B50446FFF71E
:10157800C6FE204610BD0000034800238360034ACE
:10158800034900F039BF00BF540800209003002031
:1015980073150A08704710B50446FEF77CFD20460F
:1015A80010BD000070B504460E46074B00250360C9
:1015B80040F80C5FFFF7B2FC30462671FFF798FD44
:1015C800A560204670BD00BF3C2B0A084FF6FF718E
:1015D8000079FFF765BD0079FFF76ABD0079FFF76D
:1015E8006FBD0000054A0023995C814202D0013397
:1015F800082BF9D1581CC0B2704700BF442B0A0809
:10160800400830B5186000241868E5B2884206D949
:101618000134082C02D040081860F5E70725024B72
:101628005B5D137030BD00BF442B0A0870B50446DB
:1016380002FB01F588B006791422002103A801F005
:1016480046F80B2303A930460022ADF80C30FFF70B
:101658005FFD02AB0DF1070229460498FFF7D0FFA2
:1016680020799DF80710FFF733FD029808B070BD88
:1016780038B50446A56808464DB1FFF7B3FF012207
:1016880025FA00F12046BDE83840FFF7CFBF2079A2
:10169800BDE83840FFF71CBD08B50079FFF720FD0D
:1016A800C0B208BD0079FFF72BBD0023036043607B
:1016B8008360037310B50C6804604C6844608C68E0
:1016C80084600B604B608B6010BD10B504460068E9
:1016D800FFF7FAFD204610BD10B50446006808B1B2
:1016E800FFF7F2FD00232360A360636010BD38B5E7
:1016F80004460D4600680131FFF7EEFD10B184E89D
:101708002100012038BD10B50368044613B14368B1
:101718008B4207D22046FFF7EAFF20B1A3680BB936
:1017280022681370012010BD70B50E46114604469C
:101738001546FFF7E8FF18B92046FFF7CDFF09E087
:101748002A463146A560206800F0B6FF2268A368E3
:101758000021D154204670BD38B5002304460360EB
:101768004360836003730D4639B1084600F0F2FF09
:10177800294602462046FFF7D7FF204638BD38B530
:10178800054600680C4660B16A688B689A4206D3C1
:10179800096800F0D7FFA368AB6000230AE0FFF7F1
:1017A80093FD23682B6063686B60A368AB600023BC
:1017B80023606360A36038BD884210B50B460446B9
:1017C80007D0096819B19A68FFF7AEFF01E0FFF783
:1017D80083FF204610BD10B5044600230360436014
:1017E80083600373FFF7E8FF204610BD884210B5F9
:1017F800044601D0FFF7C3FF204610BD38B50546A3
:101808000C4641B1084600F0A5FF2146024628468D
:10181800FFF78AFF01E0FFF75FFF284638BD1FB5D5
:101828000446002323606360A3602373084601A96C
:1018380000F085FC01A92046FFF7E0FF204604B030
:1018480010BD70B504460E4609B9002070BD6AB1D6
:101858008368D5182946FFF756FF0028F5D0206879
:10186800A3683146184400F06DFFA560012070BDE3
:101878008A680968FFF7E5BF10B58A6809680446F1
:10188800FFF7DFFF10B92046FFF726FF204610BDFF
:1018980008B582680B4612B919B9012008BD11B9FB
:1018A8000368187802E0006800F042FFB0FA80F0A0
:1018B800400908BD10B58368934207D904680968D0
:1018C800A01800F04FFF08B1001B10BD4FF0FF300B
:1018D80010BD0022FFF7EEBF2DE9F0411C469A42E9
:1018E80088BF13460E46154688BF25460D4988BF52
:1018F8001C460746FFF730FFB1688D420FD88C426F
:1019080028BF0C463368002213F804801A55316842
:1019180038462944FFF772FF336803F804803846D5
:10192800BDE8F081122A0A0810B504468B68FFF753
:10193800D3FF204610BD00004FF69C7337B50D4C01
:10194800002563804FF6FF732846A3802570FFF7B4
:1019580077FC02A840F8045D2A462946FFF7E6FA14
:10196800019B1E2B04D10323237011236580A380C0
:1019780003B030BD6408002037B502AC036804F832
:10198800011DDD6B012247F230532146A84703B001
:1019980030BD10B40368DC6B47F23053A44610BC6A
:1019A800604737B502AC036804F8011DDD6B2146BA
:1019B80013460122A84703B030BD70477047002086
:1019C800704710B50446FEF766FB204610BDFEF7CB
:1019D80062BB00002DE9F0431F4603688FB0DB6A45
:1019E80006460C4690469847134B186803681B68D0
:1019F8009847F0B102A8FFF7EDFC204600F0AAFED8
:101A08000023009381B23B4603AA2046FFF708FC57
:101A180078B9336809ADD3F82090084B03AC089324
:101A28000FCC0FC5236842462B7008A93B463046A9
:101A3800C8470FB0BDE8F083642C0A08442A0A0896
:101A480010B5044603689B689847A368013BA360E8
:101A58002BB923682046BDE81040DB68184710BD45
:101A680070B5044606464D69044B8C3544F8043B72
:101A78000FCD0FC42B683046237070BD442A0A0866
:101A880010B543690446B3F88620B3F884309A4207
:101A980005D06269B2F884301344187910BD036820
:101AA8001B6998470028F4D14FF0FF3010BD10B5DE
:101AB80043690446B3F88620B3F884309A4208D0C4
:101AC8006269B2F88430591CA2F88410134418795A
:101AD80010BD03681B6998470028F1D14FF0FF300B
:101AE80010BD10B504692068FFF7A2FA10B120688C
:101AF800FFF7BEFA2046BDE81040FEF7CCBAF8B5AD
:101B080043691746B3F88620B3F8843005469A42ED
:101B18000E4606D103681B69984710B94FF0FF3489
:101B280014E069693046B1F88430B1F88640194448
:101B3800E41ABC4228BF3C460431224600F0BCFDF2
:101B48006A69B2F884302344A2F884302046F8BD8C
:101B580042690023A2F884304269A2F886307047AF
:101B680038B542690446B2F886301BB1B2F8842011
:101B78009A420BD0184B186803681B68984718B32B
:101B880063691868FFF754FA18B91DE0FFF7E0FF1A
:101B9800F0E76069B0F886107F2915D8051DC1F1F6
:101BA8008002002329440068FFF75AFA00280BDD59
:101BB8006369B3F886200AB9A3F884206269B2F889
:101BC80086301844A2F886006269B2F88630B2F806
:101BD8008400181A38BD00BF642C0A0838B5436958
:101BE80004461868FFF724FA18B163691868FFF704
:101BF8003FFA6569FFF744FA2860606911220021FD
:101C08008C3000F064FD2046BDE83840FFF7A0BFE7
:101C1800F8B54FF47A738360174B0026466003606B
:101C2800466186610446A0200F46FEF732FA054653
:101C380038B10760A0F88460A0F886608830FFF7A4
:101C4800C9FB1420FEF725FA034628B10122426099
:101C580082600A4A05610260A0696561A36128B1D2
:101C68004368013B43600BB9FFF7EAFE2046FFF7E4
:101C78006FFF2046F8BD00BF702B0A08542B0A08D6
:101C880010B50446FFF7FCF901462046FFF7C0FFF0
:101C9800204610BD2DE9F041984603688AB0DB6AFA
:101CA80006460C46154698472F4B186803681B686C
:101CB8009847002855D02B4606220121CDF80080F0
:101CC80002207769FFF7BCF92023386002930027C8
:101CD800736903971B6801200193244B02AA0093A0
:101CE80023493B46FFF7A4FA73691868FFF7A0F980
:101CF800002836D03046FFF72BFF0223ADF8083016
:101D08002B0A8DF80A30E3794FF4FA508DF80C302D
:101D1800A3798DF80B508DF80D3063798DF80E305E
:101D280014F8043F8DF80F30FFF772FA736905460F
:101D3800102202A91868FFF78BF980462846FFF79A
:101D480067FA0FCC75698C350FC523682B70B8F10D
:101D5800000F05D033683046DB6A9847384600E004
:101D680001200AB0BDE8F081642C0A08BB2B0A08E0
:101D7800B42B0A0810B5436904461868FFF758F9E8
:101D880008B9002010BD074B186803681B689847FE
:101D98000028F6D063691868FFF742F9B0FA80F0B6
:101DA800400910BD642C0A082DE9F341002545605F
:101DB80004460E4617469846FFF7DCFF60B1606997
:101DC8000195CDF800802B463A4631460068FFF76A
:101DD8005FF9002803DA01E04FF0FF30606002B0DD
:101DE800BDE8F08138B50446FFF7C4FF00BB63695E
:101DF800B3F88610B3F88420914219D11868FFF718
:101E080017F928B163691868FFF70AF9012801D0A2
:101E180000250EE0236820461B699847002814BF58
:101E28000125002505D123682046DB6A984700E094
:101E38000125284638BD08B5FFF79CFF003018BFBC
:101E4800012008BD024B1A68024B1A60704700BF98
:101E5800200300206C080020704741747047007C04
:101E6800FFF796B9007CFFF76BB9007CFFF778B9EC
:101E7800007CFFF76DB9007CFFF77AB910B504460E
:101E8800FEF709F9204610BD70B5457C04460E469C
:101E980025B9007CFFF77CF9002805DD3146207C58
:101EA800BDE87040FFF744B9284670BD10B5044638
:101EB80008461146002262604FF47A72A260054A11
:101EC80020742260012262741A46FFF729F920461D
:101ED80010BD00BF002C0A08007CFFF751B90000B4
:101EE80038B50C4D296811F0010411D12846FEF7C8
:101EF800D4F868B1084A2146084B0948FFF7D6FFCD
:101F08002846FEF7CFF8074A0749054800F074FA53
:101F1800034838BD080900200C0900208408002067
:101F28007008002090030020611E0A084174704761
:101F380070470021007CFFF753B90121007CFFF7AF
:101F48004FB9007CFFF744B9007CFFF739B938B5C1
:101F58000446007C0D46FFF73BF9002801DC607C55
:101F680020B12946207CFFF743F9012038BD007CC9
:101F7800FFF746B910B50446FEF78DF8204610BDA8
:101F880010B50446002363604FF47A73A360054BD1
:101F9800084623600123217463741146FFF700F992
:101FA800204610BD302C0A080022007CFFF700B93B
:101FB80010B504461422002100F089FB054B204689
:101FC8006360054BE36040F2011323818123238280
:101FD80010BD00BF150A00209409002030B50E4D31
:101FE80087B001A8FFF7E4FF296811F0010410D1B8
:101FF8002846FEF752F860B101AA21460748FFF7C4
:10200800BFFF2846FEF74EF8054A0649034800F088
:10201800F3F9024807B030BD90090020180B0020E2
:1020280090030020391F0A0810B504461422002125
:1020380000F04DFB054B20466360054BE36040F222
:10204800011323818123238210BD00BFC80B002008
:10205800300B002010B50E4C86B001A8FFF7E4FF46
:102068002368DB0710D42046FEF717F860B101AAF1
:1020780001210848FFF784FF2046FEF713F8064AB7
:102088000649044800F0B8F9024806B010BD00BF80
:102098002C0B0020B40B002090030020391F0A08E5
:1020A8007047002211461046FFF7FEB80348044B5C
:1020B800044A0549036000F09FB900BFCC0C00201A
:1020C800602C0A0890030020A9200A0810B50446CD
:1020D80000F040FB013823182046984206D20278C7
:1020E800197800F8011B03F80129F6E710BD70B54F
:1020F8000C46911E222920D82546294610B923448A
:1021080030220EE0B0FBF2F602FB1600C1B209283D
:1021180005F8011B94BF3031573105F8011C3046D2
:10212800EBE7994202D201F8012BFAE70023204697
:102138000B70FFF7CBFF204670BD002070BD08B5BF
:102148000123FFF7D4FF08BD08B5144B33B1FFF7DF
:1021580045FF03681B699847002816DC104B33B10C
:10216800FFF7BEFE03681B699847002810DC0D4B7B
:102178000BB1AFF300800C4B7BB1FFF76BFF03682B
:102188001B699847002806DC08BDAFF30080E5E727
:10219800AFF30080EBE7AFF3008008BD000000005C
:1021A80000000000000000000000000008B5FFF774
:1021B800CBFFFEF7CBFE014B186008BDD80C002002
:1021C8000248034A0349121A00F076BA0040024056
:1021D80004400240402E0A0807B5002300931A461F
:1021E8006FF07701FFF746F803B05DF804FB0000D5
:1021F80007B543880A2B08D0502B09D1094B1B6817
:102208003BB103B05DF804EB1847FFF7E5FF06E0C4
:10221800002300931A466FF07701FFF72BF803B0FD
:102228005DF804FBD00C002038B5104C104D236825
:10223800AB42104B0CBF012200221A7002D0FFF7EC
:10224800BFFF2560FEF77AFE00F04AFA0A4B1BB181
:10225800FEF774FEAFF3008000210748FFF71CF873
:10226800BDE8384000210548FEF7FABF00400240AB
:102278001E1C279AD40C002000000000F9210A082F
:1022880010B504460F48FFF70DFA28B1A4F10D0365
:10229800022B01D8002010BD00F054F8FFF776F8A3
:1022A80008B1012CF6D9FFF71BFEFFF715FE18B190
:1022B800A4F11203012BEDD9172C8CBF00200120AB
:1022C80010BD00BF0C0D0020172838B504460D4678
:1022D8000AD8FF2908D0FFF7D3FF28B1294620469E
:1022E800BDE83840FEF742BE38BD38B504460D4655
:1022F800FEF744FEFF2810D0062804D84D2323FA01
:1023080000F0C30709D42046FFF7BAFF28B12946D1
:102318002046BDE83840FEF739BE38BD10B5044642
:10232800FEF72CFE0438C0B2012808D92046FFF772
:10233800A7FF20B12046BDE81040FEF72FBE0020C1
:1023480010BD000038B50B4D296811F001040FD1FC
:102358002846FDF7A2FE58B121460748FFF704F8C2
:102368002846FDF79FFE054A0549034800F044F852
:10237800014838BDDC0C0020E00C00209003002050
:1023880019130A0813B5084C00231A461946009376
:102398002046FFF73BF82046044A054902B0BDE84D
:1023A800104000F029B800BFF40C00209003002072
:1023B8009D130A0870B50C4C0C4E0D4D002120469B
:1023C800FFF7F0F820460B4C3246294600F014F887
:1023D80001212046FFF7E6F8324629462046BDE8A7
:1023E800704000F009B800BF0C0D002090030020D9
:1023F8009D150A081C0D00200B460146184600F0E2
:102408004DB90000244B1A68D0075CBF01221A603E
:10241800224B1A68D1075CBF01221A60204B1A6848
:10242800D2075CBF01221A601E4B1A68D0075CBF36
:1024380001221A601C4B1A68D1075CBF01221A607E
:102448001A4B1A68D2075CBF01221A60184B1A6827
:10245800D0075CBF01221A60164B1A68D1075CBF0F
:1024680001221A60144B1A68D2075CBF01221A6055
:10247800124B1A68D0075CBF01221A60104B1A6809
:10248800D1075CBF01221A600E4B1A68D2075CBFE5
:1024980001221A60704700BF580D0020540D00201B
:1024A800500D00204C0D0020480D0020440D002048
:1024B800400D00203C0D0020380D0020340D002078
:1024C800300D00202C0D0020184B1A68D1075CBF76
:1024D80001221A60164B1A68D2075CBF01221A60E3
:1024E800144B1A68D0075CBF01221A60124B1A6895
:1024F800D1075CBF01221A60104B1A68D2075CBF73
:1025080001221A600E4B1A68D0075CBF01221A60BC
:102518000C4B1A68D1075CBF01221A600A4B1A6873
:10252800D2075CBF01221A60704700BF780D0020F7
:10253800740D0020700D00206C0D0020680D002027
:10254800640D0020600D00205C0D0020184B1A68F7
:10255800D1075CBF01221A60164B1A68D2075CBF0C
:1025680001221A60144B1A68D0075CBF01221A6056
:10257800124B1A68D1075CBF01221A60104B1A6807
:10258800D2075CBF01221A600E4B1A68D0075CBFE5
:1025980001221A600C4B1A68D1075CBF01221A602D
:1025A8000A4B1A68D2075CBF01221A60704700BF45
:1025B800980D0020940D0020900D00208C0D002017
:1025C800880D0020840D0020800D00207C0D002047
:1025D800244B1A68D0075CBF01221A60224B1A6884
:1025E800D1075CBF01221A60204B1A68D2075CBF72
:1025F80001221A601E4B1A68D0075CBF01221A60BC
:102608001C4B1A68D1075CBF01221A601A4B1A6862
:10261800D2075CBF01221A60184B1A68D0075CBF4A
:1026280001221A60164B1A68D1075CBF01221A6092
:10263800144B1A68D2075CBF01221A60124B1A6841
:10264800D0075CBF01221A60104B1A68D1075CBF23
:1026580001221A600E4B1A68D2075CBF01221A6069
:10266800704700BFC80D0020C40D0020C00D002019
:10267800BC0D0020B80D0020B40D0020B00D0020C6
:10268800AC0D0020A80D0020A40D0020A00D0020F6
:102698009C0D00200A22002100F004B910B5054C59
:1026A80013462CB10A4601460220AFF3008010BD44
:1026B800204610BD0000000010B5431E0A44914298
:1026C80004D011F8014B03F8014FF8E710BD034699
:1026D8000244934202D003F8011BFAE77047000056
:1026E80038B5124B05461C68A36BD3B91820FEF702
:1026F800E3FD43F20E33A06303804AF6CD334380F3
:1027080041F2342383804EF26D63C3804DF6EC634F
:102718000381052343810B23838101220023C0E920
:102728000423A36B00221D615A6138BD8803002071
:1027380010F8012B11F8013B012A28BF9A42F7D063
:10274800D01A7047034611F8012B03F8012B002A11
:10275800F9D17047034613F8012B002AFBD1181A48
:1027680001387047F0B5037863B90B78002B18BFB0
:102778000020F0BD15F8012F62B114F8017F304632
:102788009742F7D00346461C007810B14D1E5C1ED8
:10279800F0E7F0BD1846F0BD2DE9F0470F4680463A
:1027A8003F48D0F800903D4615F8014B09EB04006E
:1027B800407800F0080000F0FF0608B12F46F2E765
:1027C8002D2C03D1BD1C7C78012603E02B2C04BFE3
:1027D8007C78BD1C13B1102B0AD15BE0302C57D18B
:1027E800287800F0DF0058284DD16C781023023586
:1027F800002E14BF4FF0004C6FF0004CBCFBF3FAF6
:102808000027384603FB1ACC09EB040E9EF801E0BA
:102818001EF0040F01D0303C0BE01EF0030E1BD05D
:10282800BEF1010F0CBF4FF0370E4FF0570ECEEB35
:102838000404A34210DDB7F1FF3F0AD0504506D883
:1028480001D1644503DC03FB0040012701E04FF0A0
:10285800FF3715F8014BD7E77B1C0CD1002E4FF042
:10286800220314BF4FF000406FF00040C8F800305A
:102878002AB9BDE8F08706B1404272B107B1691EB6
:102888001160BDE8F0873024002BB1D10823AFE7F1
:102898000A23ADE7302CA3D0AAE7BDE8F08700BF34
:1028A8002403002013460A46014602480068FFF741
:1028B80073BF00BF880300201D000A085D000A08D6
:1028C80089000A088D000A08000000007B22636C5A
:1028D80061696D223A2250686F746F6E2573207299
:1028E800656164205C2225735C22206F6E2073650D
:1028F8006E736F72202569222C20227265747261B2
:102908006374223A222420242050686F746F6E2545
:102918007320726561642024206F6E2073656E7366
:102928006F72202569227D002F636C65616E75705A
:102938002D636C61696D00504F5354004170706C89
:1029480069636174696F6E3E09526573706F6E7367
:1029580065207374617475733A20005363616E2047
:102968005049434320746F207365652055494420BE
:10297800616E6420747970652E2E2E0030005354D9
:1029880041545553206973206E6F74204F4B206F4C
:102998007220434F4C4C4953494F4E006E756C6C36
:1029A8000043617264205549443A2000436F6E74B5
:1029B800656E742D54797065006170706C6963611F
:1029C80074696F6E2F6A736F6E004163636570740C
:1029D800002A2F2A0020485454502F312E300D0A37
:1029E80000636C6F736500436F6E6E656374696F27
:1029F8006E00484F535400436F6E74656E742D4CCF
:102A0800656E677468000D0A0D0A0000000000007A
:102A18000000000019130A0863130A083B130A0888
:102A28001B130A0843130A084B130A0853130A080E
:102A38005B130A080000000000000000AB130A083E
:102A48009D130A089F130A0866006C6E00666E00E4
:102A5800636F64650064657461696C0025303130AA
:102A68007520005D20002564002C200028293A20CC
:102A780000205B00636F6465203D200025690064C9
:102A8800657461696C73203D200062617564005350
:102A9800657269616C0055534253657269616C31A6
:102AA800007479706500706172616D00636D640017
:102AB800696400686E64007374726D0066696C7492
:102AC800006C766C0061646448616E646C657200C9
:102AD80072656D6F766548616E646C657200656ECF
:102AE800756D48616E646C657273004A534F4E533E
:102AF800747265616D4C6F6748616E646C657200D5
:102B0800617070006E6F6E65007472616365006954
:102B18006E666F007761726E006572726F72007018
:102B2800616E696300616C6C0000000000000000C9
:102B3800000000009D150A089F150A0800081018D3
:102B4800202830380000000000000000C5190A08DD
:102B5800CB190A08EB1A0A08D7190A08C7190A086C
:102B68000000000000000000DD000A081D010A083E
:102B780081190A089B190A08691B0A08B71A0A0862
:102B8800891A0A08C3190A089D1C0A08DD190A08C7
:102B9800071B0A08E51B0A08ED1D0A083F1E0A085C
:102BA800AB190A08B11D0A08691A0A087769726917
:102BB8006E6700544350436C69656E7420736F638D
:102BC8006B65743D2578005A00252B3033643A250F
:102BD8003032750025592D256D2D25645425483A28
:102BE800254D3A2553257A0061736374696D650034
:102BF8000000000000000000611E0A08851E0A0887
:102C0800911E0A083D140A086D1E0A08791E0A0852
:102C1800731E0A087F1E0A08631E0A08671E0A0830
:102C28000000000000000000391F0A087D1F0A0884
:102C3800571F0A083D140A08511F0A083B1F0A08B3
:102C4800431F0A08771F0A084B1F0A08351F0A087E
:102C58000000000000000000AB200A08CC0C002097
:102C68000020202020202020202028282828282054
:102C7800202020202020202020202020202020204C
:102C880020881010101010101010101010101010B4
:102C980010040404040404040404041010101010A4
:102CA800101041414141414101010101010101016E
:102CB80001010101010101010101010110101010C0
:102CC8001010424242424242020202020202020240
:102CD8000202020202020202020202021010101094
:102CE80020000000000000000000000000000000BC
:102CF80000000000000000000000000000000000CC
:102D080000000000000000000000000000000000BB
:102D180000000000000000000000000000000000AB
:102D2800000000000000000000000000000000009B
:102D3800000000000000000000000000000000008B
:102D4800000000000000000000000000000000007B
:102D5800000000000000000000000000000000006B
:102D6800000000000000000000000000000000005B
:102D7800000000000000000000000000000000004B
:102D8800000000000000000000000000000000003B
:102D9800000000000000000000000000000000002B
:102DA800000000000000000000000000000000001B
:102DB800000000000000000000000000000000000B
:102DC800000000004300000091030A0891040A086B
:102DD800C30E0A08C70E0A08CD0E0A08E10E0A0833
:102DE800E50E0A08F90E0A08FD0E0A08110F0A086E
:102DF800150F0A08190F0A081D0F0A08210F0A08DB
:102E08002D140A0881150A0841190A084D1E0A08D6
:102E1800B5200A088D230A08BD230A080D240A08CC
:102E2800D1240A0855250A08D9250A0800000000F7
:082E3800000000000000000092
:042E4000000000008E
:102E4400B4290A08C1290A08D2290A08C1290A088A
:102E5400D2290A08D9290A0800000000000000004D
:102E6400F02B0A08682C0A08000000006C2D0A08E0
:102E74008C2D0A08AC2D0A08000000000000000098
:102E84000000000000000000CC2D0A080000000033
:102E9400000000000000000000000000000000002E
:102EA400000000000000000000000000000000001E
:102EB400000000000000000000000000000000000E
:0C2EC400000000000000000028030020B7
:102ED000FFFFFFFF00000102030405060708090ABF
:102EE0000B0C0D0E0F101112131415161718191ABA
:082EF0001B1C1D1E1F20280001
:042EF80078563412C2
:04000005080A0018CD
:00000001FF
